:020000040800F2
:10000000B00A0020990100086D0F0008290D0008B2
:10001000690F0008F9060008631D000800000000D1
:1000200000000000000000000000000011160008A1
:10003000BD0A00080000000075130008CD18000874
:10004000B3010008B3010008B3010008B3010008C0
:10005000B3010008B3010008C10A0008B301000899
:10006000B3010008B3010008B3010008B3010008A0
:10007000B3010008B3010008B3010008B301000890
:10008000B3010008B3010008B3010008B301000880
:10009000B3010008B3010008B3010008B301000870
:1000A000B3010008B3010008B3010008B301000860
:1000B000B3010008B3010008B3010008B301000850
:1000C000B3010008B3010008B3010008B301000840
:1000D000B3010008B301000831190008611A0008D3
:1000E000B3010008B3010008B301000800F002F8F2
:1000F00000F042F80AA090E8000C82448344AAF180
:100100000107DA4501D100F037F8AFF2090EBAE87D
:100110000F0013F0010F18BFFB1A43F0010318473B
:10012000301E0000501E0000103A24BF78C878C16D
:10013000FAD8520724BF30C830C144BF04680C60ED
:10014000704700000023002400250026103A28BF35
:1001500078C1FBD8520728BF30C148BF0B60704739
:10016000642900F0AD80732900F06182002070479F
:100170001FB51FBD10B510BD00F08FFA1146FFF777
:10018000F7FF01F0B5FE00F0ADFA03B4FFF7F2FFA0
:1001900003BC01F03FFE00000948804709480047C2
:1001A000FEE7FEE7FEE7FEE7FEE7FEE7FEE7FEE727
:1001B000FEE7FEE704480549054A064B7047000084
:1001C000D1180008ED000008B0040020B00A00209B
:1001D000B0060020B0060020704700000FB41CB528
:1001E000074B06AA7B4469460090059800F0F5F994
:1001F0000020694600F004FA1CBC5DF814FB000006
:10020000190400002DE9F0410E460446002020624A
:100210002046E168884730B3252805D0D4E901217C
:100220009047206A401CF2E7E16820460027884793
:10023000050018D0A5F14100192802D820354FF447
:1002400000673246294620462760FFF789FF40B104
:10025000012804D0F61D26F007060836D8E7361D1B
:10026000D6E72846DAE7206ABDE8F08170B50C468B
:100270000546012A05D02878800600D5EA690023C2
:1002800002E0012305E05B1C934202D2E05C0028FF
:10029000F9D1A869E618C01AA861286A184428622A
:1002A0002846AFF3008004E0D5E9012114F8010BE2
:1002B0009047B442F8D32846AFF3008070BD0000E9
:1002C0002DE9F0410646002410687529314616A52F
:1002D00010D0AFF30080002802DA404213A507E0F7
:1002E00031688A0701D512A502E0490704D511A596
:1002F000012401E0AFF3008000210A2206F1240767
:1003000009E0B0FBF2FCB0FBF2F302FB1C00303062
:1003100078541846491C0028F3D123462A46304613
:10032000BDE8F04100F0FBB8000000002D00000027
:100330002B0000002000000030B505460B462A4681
:1003400013F8014B12F8010B08B1A042F8D01CB110
:10035000002802D06D1CF1E7284630BD40EA0103B9
:10036000024630B59B0710D14FF0013400E008C2BF
:1003700008C91D1B9D4315EAC41FF8D013F0FF01E7
:1003800002F8011B0DD01B0AF8E711F8013B002B06
:1003900002F8013B05D011F8013B002B02F8013BAC
:1003A000F3D130BD10B5431C02E010F8011B71B150
:1003B0008107FAD14FF0013202C88C1A8C4314EA3B
:1003C000C211F9D0C01A0A0603D0C01E10BDC01A4F
:1003D00010BD0A0401D0801E10BD0902FCD0401ED1
:1003E00010BD421E12F8013F002BFBD111F8013B5A
:1003F000002B02F8013BF9D17047032A40F230800C
:1004000010F0030C00F0158011F8013BBCF1020F55
:10041000624498BF11F801CB00F8013B38BF11F8D6
:10042000013BA2F1040298BF00F801CB38BF00F8ED
:10043000013B11F0030300F0FE80083AC0F0088091
:1004400051F8043B083A51F804CBA0E80810F5E74E
:10045000121D5CBF51F8043B40F8043BAFF3008031
:10046000D20724BF11F8013B11F801CB48BF11F8A6
:10047000012B24BF00F8013B00F801CB48BF00F876
:10048000012B70474FF000020429C0F0128010F0D9
:10049000030C00F01B80CCF1040CBCF1020F18BF60
:1004A00000F8012BA8BF20F8022BA1EB0C0100F0F3
:1004B0000DB85FEAC17C24BF00F8012B00F8012BC6
:1004C00048BF00F8012B70474FF0000200B51346FB
:1004D00094469646203922BFA0E80C50A0E80C5064
:1004E000B1F12001BFF4F7AF090728BFA0E80C5015
:1004F00048BF0CC05DF804EB890028BF40F8042B0E
:1005000008BF704748BF20F8022B11F0804F18BF7A
:1005100000F8012B704770477047704770472DE90E
:10052000F0470D4699469246044600F124080168BA
:10053000880604D5E06921F01001216000E0012067
:10054000A84201DD471B00E00027A1697A1902EBF0
:100550000900081AA0612078C00602D42046AFF333
:100560000080002608E0D4E901211AF8060090472F
:10057000206A401C761C20624E45F4DB2078C006C1
:100580000AD52046AFF3008006E0D4E901213020EF
:100590009047206A401C2062381EA7F10107F4DC56
:1005A00007E0D4E9012118F805009047206A401CB3
:1005B0002062281EA5F10105F3DC2046AFF3008080
:1005C0002078000602D50220BDE8F0870120FBE775
:1005D00001694A1C02610878704700B58FB0CDE907
:1005E00001310021059105497944CDE903101146F7
:1005F0006846FFF707FE0FB000BD0000E5FFFFFFF4
:100600000A6802F8010B0A60704710B5436913B11C
:10061000AFF3008001E0FFF729FE012010BD127842
:1006200000F124010A7000224A700122EDE71168EE
:100630004FF0FF32E9E710B5203AC0F00B80B1E887
:100640001850203AA0E81850B1E81850A0E8185007
:10065000BFF4F5AF5FEA027C24BFB1E81850A0E810
:10066000185044BF18C918C0BDE810405FEA827C2A
:1006700024BF51F8043B40F8043B08BF7047D20741
:1006800028BF31F8023B48BF11F8012B28BF20F8E2
:10069000023B48BF00F8012B7047754600F028F870
:1006A000AE4605006946534620F00700854618B05F
:1006B00020B5FFF77FFDBDE820404FF000064FF06A
:1006C00000074FF000084FF0000B21F00701AC4687
:1006D000ACE8C009ACE8C009ACE8C009ACE8C009A6
:1006E0008D4670470446AFF300802046FFF74DFD6E
:1006F000004870475004002000BFFEE710B5642199
:100700000348FFF7BFFE00200249088010BD00002B
:10071000EA0300205000002010B5C8210348FFF76D
:10072000B1FE00200249088010BD000058000020E2
:100730004400002010B540F26A210248FFF7A2FEF3
:1007400010BD000020010020624890F8D50030382C
:10075000614941435F4890F8D600303843F609526A
:10076000504301EB80105D4908605A4890F8D7006B
:10077000303859494143574890F8D80030385043F1
:1007800001EB8011534890F8DA00303840F63542DA
:10079000504301EB40114F4890F8DB00303840F2F5
:1007A0007122504301EB00114A4890F8DC003038C8
:1007B00000EB4002C2EBC01001EBC001454890F8CD
:1007C000DD00303800EBC00202EB001001EB8000CE
:1007D00043490860084600683C21B0FBF1F04049FD
:1007E00008603E480068096808443E4908603020B7
:1007F000384981F8D5003B4800683749B0FBF1F033
:100800003030C1B2334880F8D610364800683649D7
:10081000B0FBF1F00A21B0FBF1F201FB1200303025
:100820002C4981F8D7002E212A4880F8D8102D486D
:1008300000682E49B0FBF1F00A21B0FBF1F201FB98
:1008400012003030234981F8D9002648006842F26E
:100850001071B0FBF1F00A21B0FBF1F201FB1200C4
:1008600030301C4981F8DA001E4800684FF47A7174
:10087000B0FBF1F00A21B0FBF1F201FB12003030C5
:10088000144981F8DB00174800686421B0FBF1F0DF
:100890000A21B0FBF1F201FB120030300D4981F862
:1008A000DC00104800680A21B0FBF1F0B0FBF1F267
:1008B00001FB12003030074981F8DD00094800686B
:1008C0000A21B0FBF1F201FB12003030014981F83E
:1008D000DE0070472001002080969800280000204C
:1008E0002C0000203000002040420F00A0860100B4
:1008F000694890F80901303868494143664890F8E2
:100900000A013038664A504301EBC011624890F842
:100910000B01303843F60952504301EB8010614916
:1009200008605D4890F80C0130385F4941435A48EF
:1009300090F80D013038504301EB8011564890F883
:100940000E01303840F63542504301EB4011524819
:1009500090F80F01303840F27122504301EB001142
:100960004D4890F81001303800EB4002C2EBC01047
:1009700001EBC001484890F81101303800EBC0028B
:1009800002EB001001EB800048490860084600684F
:100990003C21B0FBF1F04549086042480068096815
:1009A000084443490860084600683C49B0FBF1F040
:1009B0003030394981F809013D4800683A49B0FBB7
:1009C000F1F03030C1B2344880F80A11384800687C
:1009D0003849B0FBF1F00A21B0FBF1F201FB120043
:1009E00030302D4981F80B012E212B4880F80C1155
:1009F0002F4800683049B0FBF1F00A21B0FBF1F25A
:100A000001FB12003030244981F80D0128480068AC
:100A100042F21071B0FBF1F00A21B0FBF1F201FBE0
:100A2000120030301C4981F80E01214800684FF453
:100A30007A71B0FBF1F00A21B0FBF1F201FB120078
:100A40003030154981F80F01194800686421B0FB66
:100A5000F1F00A21B0FBF1F201FB120030300E4937
:100A600081F81001124800680A21B0FBF1F0B0FBD8
:100A7000F1F201FB12003030074981F811010C48F6
:100A800000680A21B0FBF1F201FB1200303002498C
:100A900081F81201704700002001002000E1F505F7
:100AA0002D3101003400002080969800380000208D
:100AB0003C00002040420F00A0860100704700006B
:100AC00010B5012000F014F828B10A2001F0C6F991
:100AD000012003490860012000F004F810BD000067
:100AE00054000020014908607047000014040140D0
:100AF000014600200022074B1B6803EA0102054B58
:100B000014331B680B4013B10AB1012000E0002030
:100B10007047000000040140002123498279002A27
:100B20003AD00A46126803689A430B461A600A1DB7
:100B3000126803689A430B1D1A60027911440A680F
:100B400003681A430A60184A0832126803689A4315
:100B5000154B08331A601A1D126803689A43124B2A
:100B60000C331A604279102A0ED11A1F12680368DA
:100B70001A430D4B08331A601A1D126803681A4392
:100B8000094B0C331A600DE00749427911440A6899
:100B900003681A430A6005E0027911440A68036891
:100BA0009A430A60704700000004014010B50446F3
:100BB00021460448FFF7C0FB08B1012010BD00200A
:100BC000FCE70000EA03002030B500228B071C0F71
:100BD0000F2303FA04F20B4B8C1053F82430934389
:100BE000084C8D1044F8253023468C1053F82430DF
:100BF0008C07240F00FA04F42343024C8D1044F8B0
:100C0000253030BD080001402DE9F04102460025A5
:100C10000026002000230024002791F803C00CF0D8
:100C20000F0591F803C00CF0100CBCF1000F03D0BD
:100C300091F802C04CEA050591F800C0BCF1000F24
:100C400031D0146800202BE04FF0010C0CFA00F3B7
:100C5000B1F800C00CEA03069E4220D183004FF099
:100C60000F0C0CFA03F7BC4305FA03FC4CEA04042E
:100C700091F803C0BCF1280F06D14FF0010C0CFA1B
:100C800000FCC2F814C00AE091F803C0BCF1480FA0
:100C900005D14FF0010C0CFA00FCC2F810C0401C4A
:100CA0000828D1D31460B1F800C0BCF1FF0F34DDC7
:100CB000546800202EE000F1080C4FF0010808FAFB
:100CC0000CF3B1F800C00CEA03069E4221D1830068
:100CD0004FF00F0C0CFA03F7BC4305FA03FC4CEA87
:100CE000040491F803C0BCF1280F05D100F1080CF1
:100CF00008FA0CF8C2F8148091F803C0BCF1480F50
:100D000007D100F1080C4FF0010808FA0CF8C2F8FE
:100D10001080401C0828CED35460BDE8F0810AB191
:100D2000016100E04161704700BFFEE710B500F0CF
:100D300035F800F08DF800F019F84FF4165000F077
:100D4000BFF800F005F801F067F8FFF7F3FC10BDFD
:100D500010B502A102A000F071FD10BD220000003C
:100D600041542B434D47533D220000001CB5012147
:100D7000084600F0B9FB00210846FFF725FF0020D8
:100D80008DF804000C208DF80500012000908DF8EE
:100D900006006846FFF7C0FE1CBD000008B5012133
:100DA0001C2000F0A1FB4FF40070ADF80000032000
:100DB0008DF8020018208DF8030069462148FFF7DE
:100DC00023FF4FF48060ADF8000004208DF803008D
:100DD00069461C48FFF718FF0420ADF800001820F2
:100DE0008DF8030069461748FFF70EFF0820ADF89D
:100DF000000004208DF8030069461248FFF704FF45
:100E00004FF40060ADF8000004208DF8030069463F
:100E10000D48FFF7F9FE0120ADF8000048208DF8DD
:100E2000030069460748FFF7EFFE4FF40050ADF8A6
:100E3000000010208DF8030069460448FFF7E4FE27
:100E400008BD000000080140000C014000100140F6
:100E500008B54FF4A06000F0C3F825208DF800001D
:100E600003208DF8010001208DF802008DF80300A9
:100E7000684600F07DF826208DF8000002208DF8ED
:100E8000010000208DF80200684600F071F827206C
:100E90008DF8000003208DF8010000208DF802007D
:100EA000684600F065F806208DF8000001208DF8F6
:100EB000010000208DF80200684600F059F808BDD6
:100EC0001FB504460121880300F00EFB01214804F0
:100ED00000F0EAFA0121880400F0E6FA1F4800F069
:100EE00021FE00940020ADF80400ADF80600ADF836
:100EF0000800ADF80C000C20ADF80A006946174850
:100F000000F0BAFE002240F22551144800F08FFE96
:100F10000121124800F0F9FD6946114800F0ACFECD
:100F2000012240F225510E4800F081FE01210C48BB
:100F300000F0EBFD69460B4800F09EFE012240F2F6
:100F40002551084800F073FE0121064800F0DDFD40
:100F5000FFF7E2FBFFF7D2FB1FBD000000380140A6
:100F6000004400400048004000BFFEE7704700001A
:100F700070B5002100230F22C47804B3154C2468F7
:100F800004F4E064C4F5E064210AC1F10403CA403A
:100F9000447804FA03F184781440214309010E4C8B
:100FA0000678A155047804F01F050124AC400578AB
:100FB0006D11AD0005F1E025C5F8004109E00478A8
:100FC00004F01F050124AC40044D0678761145F865
:100FD000264070BD0CED00E000E400E080E100E0A0
:100FE00002490143024A1160704700000000FA05FF
:100FF0000CED00E0F0B59DB004462546342168466E
:10100000FFF762FA0026002700BF5BE015F8017BBE
:1010100040210DA8FFF758FAA7F12E000C2849D25D
:10102000DFE800F006480C12181E242A30363C4235
:101030002BA22DA10DA8FFF7D1F83CE02BA22AA1ED
:101040000DA8FFF7CBF836E02AA227A10DA8FFF7DD
:10105000C5F830E029A224A10DA8FFF7BFF82AE0C7
:1010600028A221A10DA8FFF7B9F824E027A21EA10C
:101070000DA8FFF7B3F81EE026A21BA10DA8FFF7ED
:10108000ADF818E025A218A10DA8FFF7A7F812E007
:1010900024A215A10DA8FFF7A1F80CE023A212A12C
:1010A0000DA8FFF79BF806E022A20FA10DA8FFF7FD
:1010B00095F800E005E000BF0DA96846FFF791F93B
:1010C00000BF761C0A2EA1DB32212046FFF7DAF999
:1010D00069462046FFF785F901201DB0F0BD0000EC
:1010E00030303245000000002573000030303330CE
:1010F0000000000030303331000000003030333267
:101100000000000030303333000000003030333452
:10111000000000003030333500000000303033363E
:10112000000000003030333700000000303033382A
:1011300000000000303033390000000000B5CBB0B3
:10114000244890F8C900002841D04FF496716846B1
:10115000FFF7BAF900201F4981F8C9001EA12A48EB
:10116000FFF73FF91B4890F83D0100282AD04FF4C3
:1011700096716846FFF7A8F9FFF7E6FA2248693842
:10118000FFF738FF204A693A20A16846FFF726F8A2
:1011900069461D48FFF725F94FF496716846FFF739
:1011A00093F9FFF7A5FB18483538FFF723FF164AD8
:1011B000353A20A16846FFF711F869461248FFF753
:1011C00010F903E025A11048FFF70BF900BF4BB061
:1011D00000BD000020010020363041383736383459
:1011E0003830303134454241353344313531464170
:1011F0003445383636433432363535313030304484
:1012000030303041000000005E020020374541438D
:10121000354541363537353036383037344533414A
:101220004646314130303230257330303044303032
:101230003041000037454346354541363537353076
:10124000363830373445334146463141303032301C
:101250002573303030443030304100003030343786
:10126000303035303030353336353730363336453B
:1012700034453044353345463735323830303044E4
:101280003030304100000000F8B50026364890F8B4
:10129000C800002866D00020334981F8C80000BF8C
:1012A0005EE04EB931A13048FFF746F8040055D151
:1012B000022000F0F9FD51E0641C2CA12046FFF74C
:1012C0003BF8050047D0072E2DD2DFE806F02C04AE
:1012D0000B11181E25002A1B21462348CA30FFF790
:1012E0008CF821E02A1B21466846FFF786F81BE0B0
:1012F0002A1B21461C48D530FFF77FF814E02A1B33
:1013000021461B48FFF779F80EE02A1B21461848B2
:10131000801CFFF772F807E02A1B2146144834307E
:10132000FFF76BF800E000BF00BF2C4601200E491C
:1013300081F8C9009DF80000412803D1012081F8FF
:101340003D0107E09DF80000562803D10020064922
:1013500081F83D0102E0032000F0A6FD701CC6B23A
:10136000062E9EDDF8BD0000200100202C000000AC
:10137000270200207047000070B590B000240025BF
:10138000002632480068FFF70DF8054600BF58E018
:101390002E48006806782D480068401C2B490860DC
:1013A00040216846FFF790F8A6F130000A2842D2A3
:1013B000DFE800F0050B11171D23292F353B24A270
:1013C00025A16846FEF70AFF35E024A222A168465F
:1013D000FEF704FF2FE023A21FA16846FEF7FEFEE2
:1013E00029E022A21CA16846FEF7F8FE23E021A214
:1013F00019A16846FEF7F2FE1DE020A216A168467C
:10140000FEF7ECFE17E01FA213A16846FEF7E6FE0A
:1014100011E01EA210A16846FEF7E0FE0BE01DA23F
:101420000DA16846FEF7DAFE05E01CA20AA1684697
:10143000FEF7D4FE00BF00BF69461A48FEF7D1FF91
:10144000641CAC42A4DB012010B070BD4800002039
:10145000303033300000000025730000303033316D
:1014600000000000303033320000000030303333F1
:1014700000000000303033340000000030303335DD
:1014800000000000303033360000000030303337C9
:1014900000000000303033380000000030303339B5
:1014A00000000000CA03002029B1064AD2690243A5
:1014B000044BDA6104E0034AD2698243014BDA61EA
:1014C000704700000010024029B1064A1269024329
:1014D000044B1A6104E0034A12698243014B1A610A
:1014E000704700000010024029B1064A9269024389
:1014F000044B9A6104E0034A92698243014B9A616A
:10150000704700000010024029B1064AD268024329
:10151000044BDA6004E0034AD2688243014BDA608C
:10152000704700000010024030B500210022002466
:1015300000232D4D6D6805F00C0121B1042905D063
:10154000082923D105E0294D056022E0274D0560DB
:101550001FE0254D6D6805F47012234D6D6805F48C
:101560008034022505EB92421CB9214D554305609C
:101570000BE01D4D6D6805F400351DB11C4D554344
:10158000056002E0194D5543056002E0174D056006
:1015900000BF00BF144D6D6805F0F0010909154D3D
:1015A0006B5C0568DD4045600F4D6D6805F4E061DA
:1015B000090A104D6B5C4568DD4085600A4D6D6819
:1015C00005F46051C90A0B4D6B5C4568DD40C56090
:1015D000054D6D6805F44041890B074D6B5CC5688E
:1015E000B5FBF3F5056130BD0010024000127A0032
:1015F00000093D00140000202400002010B5012245
:1016000051030248FFF78BFB10BD000000100140A2
:101610007047000010B50446322303221FA120A00A
:1016200000F0CCF910B94FF0FF3010BD3223022288
:101630001CA11EA000F0C2F910B96FF00100F4E780
:10164000032000F091FB10B96FF00200EDE73223A8
:10165000022212A118A000F0B1F910B96FF0030036
:10166000E3E7322302220DA116A000F0A7F910B97A
:101670006FF00400D9E73223022208A116A000F07F
:101680009DF910B96FF00500CFE7204600F02CF867
:10169000012800D1C9E76FF00600C6E74F4B0000F4
:1016A00041540000524541445900000041542B432D
:1016B00050494E3F0000000041542B434D47463DEA
:1016C0003100000041542B43534D503D31372C31F4
:1016D00036372C312C38000041542B435343533DB3
:1016E000225543533222000038B504461A208DF8A3
:1016F000000000208DF801000C480D4908603223DD
:1017000003220CA10A48006800F058F910B96FF0E4
:10171000070038BD204600F03BF94FF4AF730122BB
:1017200005A1684600F06BF90120F2E78A0300206A
:101730004C0000203E0000002B434D4753000000AA
:1017400010B500F001F810BD0CB50020019000901C
:101750003348006840F480303149086000BF3048A9
:10176000006800F4003000900198401C019000983F
:1017700018B90198B0F5A06FF1D12948006800F4BC
:10178000003010B10120009001E00020009000988E
:10179000012843D12348006840F010002149086027
:1017A0000846006820F0030008600846006840F022
:1017B000020008601A4840681949486008464068B5
:1017C00048600846406840F48060486008464068C9
:1017D00020F47C1048600846406840F4E8104860F7
:1017E0000846006840F08070086000BF0C48006840
:1017F00000F000700028F9D00948406820F003008C
:10180000074948600846406840F00200486000BF51
:101810000348406800F00C000828F9D10CBD000016
:10182000001002400020024010B500224FF4005189
:101830000148FFF774FA10BD0010014030B589B0BF
:1018400004460D4620211448FEF71CFE202101A865
:10185000FEF73AFE224611A101A8FEF7BFFC01A93E
:101860000D48FEF7BEFDFFF787FD202101A8FEF71A
:101870002BFE2A4609A101A8FEF7B0FC01A90648E3
:10188000FEF7AFFD04490648FEF7ABFD20210248F4
:10189000FEF7F8FD09B030BDCA0300202573000033
:1018A0008A030020042808D14FF0E021096941F0A3
:1018B00004014FF0E022116107E04FF0E0210969D7
:1018C00021F004014FF0E0221161704770470000E1
:1018D00010B51348006840F001001149086008463F
:1018E0004068104908400E494860084600680E49A3
:1018F00008400B4908600846006820F48020086012
:101900000846406820F4FE0048604FF41F008860DD
:10191000FFF716FF4FF000600449086010BD00009B
:10192000001002400000FFF8FFFFF6FE08ED00E0A7
:1019300010B540F22551124800F04FF990B110480F
:1019400000F006FAC4B20F4801880088401C0D4A16
:1019500010800D48445410460088642802DD0020A1
:10196000114608800821064800F02AF930B1082104
:10197000064800F0C1F8024800F0EAF910BD000086
:101980000044004050000020EA03002000380140DD
:1019900010B504460BE000BF4021074800F010F9E5
:1019A0000028F9D014F8011B034800F0D6F920787C
:1019B0000028F0D110BD0000004400402DE9F041A6
:1019C00080460D4616461F46002414E0404600F0AF
:1019D00031F8002404E0384600F040FA601CC4B23C
:1019E0000A2CF8DB2846FFF7E1F810B10120BDE82A
:1019F000F081601CC4B2B442E8DB0020F7E72DE9B7
:101A0000F04180460C4615461E4600270EE0404633
:101A100000F01EF8B0B200F021FA2046FFF7C6F839
:101A200010B10120BDE8F081781CC7B2AF42EEDBF7
:101A30000020F7E710B50446FEF760FE2046FFF7EA
:101A4000A7FF02A0FFF7A4FF10BD00000D0A0000D1
:101A500010B50446FEF752FE2046FFF799FF10BD71
:101A600010B540F22551204800F0B7F8002839D0D1
:101A70001D4800F06DF9C4B2242C02D100201B498E
:101A800008801A4801880088401C184A10801848AD
:101A90004454007824281ED1154800794D281AD1C5
:101AA00013484079432816D10A2C14D1C821114873
:101AB000FEF7E8FC0D4802880D490E48FEF79DFC34
:101AC00001200C4981F8C800002008490880C8217D
:101AD0000748FEF7D7FC05480088C82802DBC82065
:101AE0000249088010BD000000480040440000206A
:101AF000580000202001002001F40072B2F5007FA0
:101B000000D100BFCA430280704721B1828942F4EC
:101B10000052828104E082894DF6FF731A4082816F
:101B20007047000010B504462048844209D10121C5
:101B30008803FFF7E9FC00214FF48040FFF7E4FC45
:101B400032E01B48844209D101214804FFF7BCFC64
:101B500000214FF40030FFF7B7FC25E01548844220
:101B600009D101218804FFF7AFFC00214FF4802048
:101B7000FFF7AAFC18E01048844209D10121C804EB
:101B8000FFF7A2FC00214FF40020FFF79DFC0BE0C3
:101B90000A48844208D101210805FFF795FC00217D
:101BA0004FF48010FFF790FC10BD0000003801409A
:101BB0000044004000480040004C004000500040FD
:101BC00002460020B1F5007F00D100BF13880B4012
:101BD0000BB1012000E00020704770B502460024E0
:101BE00000230025002040F66A16B14200D100BF54
:101BF000C1F3421501F01F03012606FA03F3012D7C
:101C000002D19689334006E0022D02D1168A334074
:101C100001E0968A33400C12012606FA04F4168875
:101C2000344013B10CB1012000E0002070BDF0B5CC
:101C30000346002400260025002040F66A17B9421A
:101C400000D100BF1846C1F3421401F01F0601275E
:101C500007FA06F5012C01D10C3004E0022C01D169
:101C6000103000E014301AB107682F43076002E01B
:101C70000768AF430760F0BD2DE9F04786B0054621
:101C80000E460024A24600BFA1460027B08900B13D
:101C900000BF2F462C8A4CF6FF700440F0880443A6
:101CA0002C82AC894EF6F3100440B0883189084389
:101CB000718908430443AC81AC8A4FF6FF4004406D
:101CC000B0890443AC8201A8FFF72EFC1F4887426D
:101CD00002D1DDF810A001E0DDF80CA0A88900F425
:101CE000004040B10AEBCA0000EB0A10316849001D
:101CF000B0FBF1F807E00AEBCA0000EB0A1031680C
:101D00008900B0FBF1F86420B8FBF0F00401200971
:101D1000642101FB1089A88900F4004040B1322001
:101D200000EBC900B0FBF1F000F00700044308E04D
:101D3000322000EB09106421B0FBF1F000F00F003D
:101D400004432C8106B0BDE8F08700000038014054
:101D500001468888C0F308007047C1F308028280FA
:101D6000704700BFFEE700002DE9F041044601275F
:101D70000025FEF7C3FC40E022A0FFF75BFE002633
:101D800003E0642000F06AF8761C142EF9DB0021D1
:101D90002BE01F48405C2B2826D11D4A481C105CB4
:101DA000432821D1881C105C52281DD1C81C105C0E
:101DB000452819D1081D105C472815D1481D105C15
:101DC0003A2811D1C81D105C30280DD101F109004D
:101DD000105C312804D001F10900105C362803D1D1
:101DE00000270120BDE8F081491C6429D1DB681C73
:101DF000C5B2A54201DD0020F4E7002FBCD10020D0
:101E0000F0E7000041542B435245473F00000000DB
:101E1000EA03002000BF704710B56FF00400FFF721
:101E200041FD0A4800680A49B0FBF1F00949087011
:101E30000846007800EB4001C1EBC0104FF6FF717F
:101E400001EAC0000449088010BD00000000002025
:101E500000127A0040000020420000200146114A92
:101E600012884A434FF0E0235A6100229A611A46D1
:101E7000126942F001021A6100BF4FF0E0221069BE
:101E800000F001021AB100F48032002AF5D04FF0C0
:101E9000E022126922F001024FF0E0231A610022D1
:101EA0009A6170474200002010B5CCB004464FF450
:101EB000967101A8FEF708FB224605A101A8FEF7CE
:101EC0008DF901A90948FEF749FA4CB010BD000090
:101ED000393531393842454636363246303032307F
:101EE0002564303030443030304100005E02002044
:101EF000FEF71CFFFFF782FB1EE010480068012878
:101F00001AD100200D490860FFF778FBC820FFF7C1
:101F1000A5FFFFF789FCFFF7B7F9FFF70FF90848AE
:101F2000FFF778FB0446012C02D004F1090008B940
:101F3000FFF764FBFEF7FEFBDFE700005400002024
:101F40005E020020313330383338333038363100D8
:101F5000701F000800000020580000002801000841
:101F6000C81F000858000020580A0000440100085B
:101F700000A24A0400000000000000000102030467
:101F8000060708090000000001020304010203041F
:101F9000060708090204060800000000000000000F
:101FA0000000000000000000000000000000000031
:101FB0000000000000000000441F000800000000B6
:081FC000000000000000000019
:04000005080000ED02
:00000001FF
